:020000040000FA
:100000000C945D000C9485000C9485000C94850084
:100010000C9485000C9485000C9485000C9485004C
:100020000C9485000C9485000C9485000C9485003C
:100030000C9485000C9485000C9485000C9485002C
:100040000C9470030C9485000C943E030C941803DC
:100050000C9485000C9485000C9485000C9485000C
:100060000C9485000C94850000000008000201003B
:100070000003040700000000000000000000000072
:10008000250028002B0000000000240027002A0083
:10009000010204081020408001020408102001021F
:1000A00004081020040404040404040402020202EC
:1000B0000202030303030303BA0311241FBECFEF9D
:1000C000D8E0DEBFCDBF11E0A0E0B1E0EEE1FDE0A1
:1000D00002C005900D92AC34B107D9F722E0ACE430
:1000E000B1E001C01D92A031B207E1F710E0CDE50B
:1000F000D0E004C02197FE010E947E06CC35D107D6
:10010000C9F70E9435040C948D060C94000090E011
:10011000FC01E057FF4F24918C559F4FFC018491C7
:10012000882399F090E0880F991FFC01EA57FF4F50
:10013000A591B491FC01E458FF4F859194918FB73C
:10014000F894EC91E22BEC938FBF0895AF92BF929D
:10015000CF92DF92EF92FF920F931F93CF93DF9393
:100160006C017B018B01040F151FEB015E01AE18C2
:10017000BF08C017D10759F06991D601ED91FC91E4
:100180000190F081E02DC6010995892B79F7C50111
:10019000DF91CF911F910F91FF90EF90DF90CF9063
:1001A000BF90AF900895FC01538D448D252F30E012
:1001B000842F90E0821B930B541710F0CF96089574
:1001C00001970895FC01918D828D981761F0A28DA1
:1001D000AE0FBF2FB11D5D968C91928D9F5F9F7367
:1001E000928F90E008958FEF9FEF0895FC01918D1D
:1001F000828D981731F0828DE80FF11D858D90E08A
:1002000008958FEF9FEF0895FC01918D228D892F26
:1002100090E0805C9F4F821B91098F73992708950E
:100220008CE691E00E94040121E0892B09F420E092
:10023000822F089580E090E0892B29F00E94100120
:1002400081110C9400000895FC01A48DA80FB92F12
:10025000B11DA35ABF4F2C91848D90E001968F73EE
:100260009927848FA689B7892C93A089B1898C910D
:10027000837080648C93938D848D981306C002885C
:10028000F389E02D80818F7D80830895EF92FF9226
:100290000F931F93CF93DF93EC0181E0888F9B8DA9
:1002A0008C8D98131AC0E889F989808185FF15C063
:1002B0009FB7F894EE89FF896083E889F989808186
:1002C0008370806480839FBF81E090E0DF91CF9155
:1002D0001F910F91FF90EF900895F62E0B8D10E077
:1002E0000F5F1F4F0F731127E02E8C8D8E110CC0E6
:1002F0000FB607FCFACFE889F989808185FFF5CF31
:10030000CE010E942401F1CFEB8DEC0FFD2FF11DEA
:10031000E35AFF4FF0829FB7F8940B8FEA89FB896D
:1003200080818062CFCFCF93DF93EC01888D8823CB
:10033000B9F0AA89BB89E889F9898C9185FD03C048
:10034000808186FD0DC00FB607FCF7CF8C9185FF2D
:10035000F2CF808185FFEDCFCE010E942401E9CF4D
:10036000DF91CF91089590E0FC01E859FF4F24916F
:10037000FC01E057FF4F3491FC01EC55FF4FE49135
:10038000EE23C9F0222339F0233001F1A8F4213003
:1003900019F1223029F1F0E0EE0FFF1FE458FF4F72
:1003A000A591B4918FB7F894EC91611126C0309566
:1003B0003E233C938FBF08952730A9F02830C9F021
:1003C000243049F7809180008F7D03C080918000A8
:1003D0008F7780938000DFCF84B58F7784BDDBCFAC
:1003E00084B58F7DFBCF8091B0008F778093B00074
:1003F000D2CF8091B0008F7DF9CF3E2BDACF61E074
:1004000080910A020C94B30180E58CBD81E08DBD22
:1004100060E080910A020C94B3013FB7F894809198
:10042000510190915201A0915301B091540126B510
:10043000A89B05C02F3F19F00196A11DB11D3FBF1C
:10044000BA2FA92F982F8827BC01CD01620F711DEB
:10045000811D911D42E0660F771F881F991F4A95E5
:10046000D1F708958F929F92AF92BF92CF92DF9271
:10047000EF92FF924B015C010E940D026B017C0127
:100480000E940D026C197D098E099F09683E734018
:1004900081059105A8F321E0821A9108A108B1080D
:1004A00088EEC80E83E0D81EE11CF11C8114910473
:1004B000A104B10429F7FF90EF90DF90CF90BF9097
:1004C000AF909F908F9008958EBD00000DB407FEF1
:1004D000FDCF8EB50895CF93C82F0E94040283E00C
:1004E0000E9464028C2F0E94640280E00E946402D9
:1004F000C82F0E94FF018C2FCF9108951F93CF9397
:10050000DF93182FD62FC42F0E94040285E00E948B
:100510006402812F0E9464028D2F0E9464028C2F3E
:100520000E946402DF91CF911F910C94FF01CF9242
:10053000DF92EF92FF92CF93C82F482F60EE8FE0AB
:100540000E947E028FB7F894C0906801D090690134
:10055000E0906A01F0906B018FBF8AE0C80ED11C59
:10056000E11CF11C2FB7F89480916801909169010A
:10057000A0916A01B0916B012FBF8C159D05AE054E
:10058000BF0580F48EE00E946B02807EC813EACF24
:1005900081E091E0892790E0CF91FF90EF90DF908C
:1005A000CF90089580E0F5CFCF93DF93D82FC62F5B
:1005B0000E94040282E00E9464028D2F0E94640265
:1005C0008C2F0E946402DF91CF910C94FF01FF9267
:1005D0000F931F93CF93DF93C82FF62E172F042F5F
:1005E0000E94040282E00E9464028C2F0E94640236
:1005F000CF2DD12F0C0F1D2F111DC017D10721F0AA
:1006000089910E946402F9CFDF91CF911F910F91E0
:10061000FF900C94FF01FC0101900020E9F7319755
:10062000AF01481B590BBC018CE691E00C94A6006D
:100630001F920F920FB60F9211242F933F934F9357
:100640005F936F937F938F939F93AF93BF93EF933A
:10065000FF938CE691E00E942401FF91EF91BF91FE
:10066000AF919F918F917F916F915F914F913F914A
:100670002F910F900FBE0F901F9018951F920F9201
:100680000FB60F9211242F938F939F93EF93FF93A5
:10069000E0917C01F0917D018081E0918201F091F7
:1006A000830182FD1BC09081809185018F5F8F73D4
:1006B00020918601821741F0E0918501F0E0E45934
:1006C000FE4F958F80938501FF91EF919F918F91C0
:1006D0002F910F900FBE0F901F9018958081F4CF2F
:1006E0001F920F920FB60F9211242F933F938F9367
:1006F0009F93AF93BF938091680190916901A091FE
:100700006A01B0916B013091500123E0230F2D3726
:1007100058F50196A11DB11D2093500180936801E9
:1007200090936901A0936A01B0936B01809151018C
:1007300090915201A0915301B09154010196A11DD5
:10074000B11D8093510190935201A0935301B09336
:100750005401BF91AF919F918F913F912F910F9035
:100760000FBE0F901F90189526E8230F0296A11D2B
:10077000B11DD2CFCF9310926F0110926E0188EE0F
:1007800093E0A0E0B0E08093700190937101A0939A
:100790007201B09373018FE191E090936D018093AA
:1007A0006C0185EC90E0909379018093780184EC62
:1007B00090E090937B0180937A0180EC90E090939D
:1007C0007D0180937C0181EC90E090937F01809388
:1007D0007E0182EC90E0909381018093800186EC11
:1007E00090E0909383018093820110928501109292
:1007F00086011092870110928801CFB7F8948091FA
:100800000902811124C0EEEAF0E08491EAE9F0E007
:100810009491E82FF0E0EE0FFF1FEA57FF4FA591EC
:10082000B491EC91E92321F461E08AE00E94B301E4
:100830008AE00E9487008CB580618CBD8CB5806495
:100840008CBD8DE00E9487008BE00E948700809124
:1008500009028F5F80930902CFBF8AE080930A026A
:100860000E948700CF910C94FF01CF93DF93CDB707
:10087000DEB7EB970FB6F894DEBF0FBECDBF78940E
:1008800084B5826084BD84B5816084BD85B5826095
:1008900085BD85B5816085BD80916E008160809346
:1008A0006E001092810080918100826080938100AF
:1008B00080918100816080938100809180008160BF
:1008C000809380008091B10084608093B10080911A
:1008D000B00081608093B00080917A008460809342
:1008E0007A0080917A00826080937A0080917A0009
:1008F000816080937A0080917A00806880937A008A
:100900001092C100E0917C01F0917D0182E0808332
:10091000E0917801F09179011082E0917A01F091F3
:100920007B018FEC808310928401E0918001F09133
:10093000810186E08083E0917E01F0917F018081DA
:1009400080618083E0917E01F0917F0180818860E9
:100950008083E0917E01F0917F01808180688083B7
:10096000E0917E01F0917F0180818F7D80830E94E4
:10097000040280EC0E9464020E94FF016AE070E0C1
:1009800080E090E00E943202CE0101967C018EE070
:10099000D7011D928A95E9F74EE0B70180E30E94E6
:1009A000E7024EE0B70180E40E94E7024EE0B701A3
:1009B00080E50E94E70260E080E60E94D40260E0E9
:1009C00080E70E94D40263EA8BE20E94D40244E0F2
:1009D00067E680E60E947E0241E067E680E70E94CB
:1009E0007E028CE0E0E0F1E0DE01929601900D9253
:1009F0008A95E1F75E01B2E2AB0EB11CD12CC12C9D
:100A0000AAAEBBAE98E0792EF501019111915F017C
:100A100080E80E949702892B71F40230110509F4D5
:100A20001EC108F0D2C00115110509F4DAC0013069
:100A3000110509F41AC180E80E949702892B61F41C
:100A400060E08AE20E94D40260E989E20E94D40256
:100A500062E888E20E94D40280E00E949702A6E346
:100A60004A2E512C612C712CB8E0CB2E1E0188E24D
:100A7000280E311C409258015092590160925A013F
:100A800070925B01C0925C0191E0909360011092C2
:100A90006101109262011092630110926401109240
:100AA0006501109266011092670186E0ECE0F1E0CA
:100AB000DE01929601900D928A95E1F70AAD1BAD89
:100AC000D801AD90BD908D014501880C991CF401B1
:100AD000EA0DFB1DEE5EFE4FD0808D2D0E946B0255
:100AE00083FDE5C010915C01193008F06CC04091A5
:100AF00058015091590160915A0170915B01DB01DD
:100B0000CA018827B7FD83959927AA27BB27282FD5
:100B1000DB01CA0188279927AA27B0748EAB9FAB47
:100B2000A8AFB9AF8FEF9FEFAFEFBFE1211104C0C6
:100B30008FEF97E0A0E0B0E084239523A623B723AE
:100B4000222309F4A4C08C839B83CD01AA27BB2751
:100B5000282F220F220F220F207E382F337038606B
:100B6000232B2A8335E0969587953A95E1F789837B
:100B70008EA99FA9A8ADB9AD892B8A2B8B2B09F41F
:100B800094C0812F80648D83412F50E060E671E036
:100B9000CE0106960E94840645E0410FF401EA0D5D
:100BA000FB1DEE5EFE4FB70181810E94E70248E027
:100BB00068E08D2D0E947E028D2D0E946B02807751
:100BC00010E009F479C014E077C00430110509F48D
:100BD0004AC008F446C00530110509F02CCF88E161
:100BE00001C080E0F1E0CF16D10409F040C019AA9D
:100BF00018AA7FA61EA644E0BE01625D7F4F0E9438
:100C0000E7028FEFC81AD80A96E0C916D10409F096
:100C1000FBCE1BAA1AAA81E090E09DAB8CAB8E01A3
:100C20000E5C1F4F6E01A6E3CA0ED11C88E0782E21
:100C3000F801A190B1908F0180E80E949702892B62
:100C400009F0F9CE19AA18AA7FA61EA6A114B1040C
:100C500099F0AA94AB2809F0EECE84E20EC088E0A9
:100C6000C1CF80E1BFCF84E1BDCF84E0BBCF1EA662
:100C70001FA619AA18AABFCF80E244E0BE01625D98
:100C80007F4F0E94E7020C151D0591F6D4CE9C0102
:100C900093E0369527959A95E1F729838295880FF9
:100CA000807E8A831C821B8263CF812F6CCF0215CA
:100CB000130509F005CF12E08DE291E00E940B03CD
:100CC00019A2105D18A3CE0180960E940B0388E440
:100CD00091E00E940B0368EE73E080E090E00E94D8
:100CE0003202A0E0B0E0AB2B09F4C4CE0E941001A8
:100CF000882309F4BFCE0E940000BCCEEE0FFF1F78
:100D00000590F491E02D0994FB01DC0102C00190F3
:100D10000D9241505040D8F70895F894FFCF00004D
:100D200001000200030004000500000001000200B1
:100D3000303136404146505156000000004601A671
:100D400000D30093010401E200F6004D6573736166
:100D500067652053656E74207769746820737461C9
:0A0D60007475733A20000D0A0000BC
:107E0000112484B714BE81FFF0D085E080938100F7
:107E100082E08093C00088E18093C10086E0809377
:107E2000C20080E18093C4008EE0C9D0259A86E02C
:107E300020E33CEF91E0309385002093840096BBD3
:107E4000B09BFECF1D9AA8958150A9F7CC24DD24C4
:107E500088248394B5E0AB2EA1E19A2EF3E0BF2EE7
:107E6000A2D0813461F49FD0082FAFD0023811F036
:107E7000013811F484E001C083E08DD089C08234E0
:107E800011F484E103C0853419F485E0A6D080C0E4
:107E9000853579F488D0E82EFF2485D0082F10E0AE
:107EA000102F00270E291F29000F111F8ED06801E7
:107EB0006FC0863521F484E090D080E0DECF843638
:107EC00009F040C070D06FD0082F6DD080E0C81688
:107ED00080E7D80618F4F601B7BEE895C0E0D1E017
:107EE00062D089930C17E1F7F0E0CF16F0E7DF06D8
:107EF00018F0F601B7BEE89568D007B600FCFDCFD4
:107F0000A601A0E0B1E02C9130E011968C91119780
:107F100090E0982F8827822B932B1296FA010C0160
:107F200087BEE89511244E5F5F4FF1E0A038BF0790
:107F300051F7F601A7BEE89507B600FCFDCF97BE46
:107F4000E89526C08437B1F42ED02DD0F82E2BD052
:107F50003CD0F601EF2C8F010F5F1F4F84911BD097
:107F6000EA94F801C1F70894C11CD11CFA94CF0C13
:107F7000D11C0EC0853739F428D08EE10CD085E9AC
:107F80000AD08FE07ACF813511F488E018D01DD067
:107F900080E101D065CF982F8091C00085FFFCCF94
:107FA0009093C60008958091C00087FFFCCF809118
:107FB000C00084FD01C0A8958091C6000895E0E648
:107FC000F0E098E1908380830895EDDF803219F02E
:107FD00088E0F5DFFFCF84E1DECF1F93182FE3DFCA
:107FE0001150E9F7F2DF1F91089580E0E8DFEE27F6
:047FF000FF270994CA
:027FFE00040479
:00000001FF
